{
  "address": "0x804df2DE555db28EF64cce93Bd1cDeDCfC941e81",
  "abi": [
    {
      "inputs": [
        {
          "internalType": "address",
          "name": "priceFeedAddress",
          "type": "address"
        }
      ],
      "stateMutability": "nonpayable",
      "type": "constructor"
    },
    {
      "inputs": [],
      "name": "FundMe__NotOwner",
      "type": "error"
    },
    {
      "stateMutability": "payable",
      "type": "fallback"
    },
    {
      "inputs": [],
      "name": "MINIMUM_USD",
      "outputs": [
        {
          "internalType": "uint256",
          "name": "",
          "type": "uint256"
        }
      ],
      "stateMutability": "view",
      "type": "function"
    },
    {
      "inputs": [
        {
          "internalType": "address",
          "name": "",
          "type": "address"
        }
      ],
      "name": "addressToAmountFunded",
      "outputs": [
        {
          "internalType": "uint256",
          "name": "",
          "type": "uint256"
        }
      ],
      "stateMutability": "view",
      "type": "function"
    },
    {
      "inputs": [],
      "name": "fund",
      "outputs": [],
      "stateMutability": "payable",
      "type": "function"
    },
    {
      "inputs": [
        {
          "internalType": "uint256",
          "name": "",
          "type": "uint256"
        }
      ],
      "name": "funders",
      "outputs": [
        {
          "internalType": "address",
          "name": "",
          "type": "address"
        }
      ],
      "stateMutability": "view",
      "type": "function"
    },
    {
      "inputs": [],
      "name": "getVersion",
      "outputs": [
        {
          "internalType": "uint256",
          "name": "",
          "type": "uint256"
        }
      ],
      "stateMutability": "view",
      "type": "function"
    },
    {
      "inputs": [],
      "name": "i_owner",
      "outputs": [
        {
          "internalType": "address",
          "name": "",
          "type": "address"
        }
      ],
      "stateMutability": "view",
      "type": "function"
    },
    {
      "inputs": [],
      "name": "priceFeed",
      "outputs": [
        {
          "internalType": "contract AggregatorV3Interface",
          "name": "",
          "type": "address"
        }
      ],
      "stateMutability": "view",
      "type": "function"
    },
    {
      "inputs": [],
      "name": "withdraw",
      "outputs": [],
      "stateMutability": "payable",
      "type": "function"
    },
    {
      "stateMutability": "payable",
      "type": "receive"
    }
  ],
  "transactionHash": "0x284d6785f4610bddc2bfce24876ccdbaffce7286c3c25e0dac4ed390ec73c3fd",
  "args": [
    "0x8A753747A1Fa494EC906cE90E9f37563A8AF630e"
  ],
  "numDeployments": 1,
  "solcInputHash": "5c4cb0e3bae9479d539522fa7a895172",
  "bytecode": "0x60c06040523480156200001157600080fd5b50604051620010ff380380620010ff833981810160405281019062000037919062000116565b8073ffffffffffffffffffffffffffffffffffffffff1660a08173ffffffffffffffffffffffffffffffffffffffff1660601b815250503373ffffffffffffffffffffffffffffffffffffffff1660808173ffffffffffffffffffffffffffffffffffffffff1660601b815250505062000148565b600080fd5b600073ffffffffffffffffffffffffffffffffffffffff82169050919050565b6000620000de82620000b1565b9050919050565b620000f081620000d1565b8114620000fc57600080fd5b50565b6000815190506200011081620000e5565b92915050565b6000602082840312156200012f576200012e620000ac565b5b60006200013f84828501620000ff565b91505092915050565b60805160601c60a05160601c610f7662000189600039600081816101e10152818161030e01526106160152600081816103b1015261063a0152610f766000f3fe60806040526004361061007f5760003560e01c8063741bef1a1161004e578063741bef1a14610135578063b60d428814610160578063dba6335f1461016a578063dc0d3dff146101955761008e565b80630d8e6e2c146100985780633ccfd60b146100c35780633e47d6f3146100cd5780636b69a5921461010a5761008e565b3661008e5761008c6101d2565b005b6100966101d2565b005b3480156100a457600080fd5b506100ad61030a565b6040516100ba9190610837565b60405180910390f35b6100cb6103af565b005b3480156100d957600080fd5b506100f460048036038101906100ef91906108b5565b6105ef565b6040516101019190610837565b60405180910390f35b34801561011657600080fd5b5061011f610607565b60405161012c9190610837565b60405180910390f35b34801561014157600080fd5b5061014a610614565b6040516101579190610941565b60405180910390f35b6101686101d2565b005b34801561017657600080fd5b5061017f610638565b60405161018c919061096b565b60405180910390f35b3480156101a157600080fd5b506101bc60048036038101906101b791906109b2565b61065c565b6040516101c9919061096b565b60405180910390f35b6802b5e3af16b188000061020f7f00000000000000000000000000000000000000000000000000000000000000003461069b90919063ffffffff16565b1015610250576040517f08c379a000000000000000000000000000000000000000000000000000000000815260040161024790610a3c565b60405180910390fd5b346000803373ffffffffffffffffffffffffffffffffffffffff1673ffffffffffffffffffffffffffffffffffffffff168152602001908152602001600020600082825461029e9190610a8b565b925050819055506001339080600181540180825580915050600190039060005260206000200160009091909190916101000a81548173ffffffffffffffffffffffffffffffffffffffff021916908373ffffffffffffffffffffffffffffffffffffffff160217905550565b60007f000000000000000000000000000000000000000000000000000000000000000073ffffffffffffffffffffffffffffffffffffffff166354fd4d506040518163ffffffff1660e01b815260040160206040518083038186803b15801561037257600080fd5b505afa158015610386573d6000803e3d6000fd5b505050506040513d601f19601f820116820180604052508101906103aa9190610af6565b905090565b7f000000000000000000000000000000000000000000000000000000000000000073ffffffffffffffffffffffffffffffffffffffff163373ffffffffffffffffffffffffffffffffffffffff1614610434576040517f579610db00000000000000000000000000000000000000000000000000000000815260040160405180910390fd5b60005b6001805490508110156104df5760006001828154811061045a57610459610b23565b5b9060005260206000200160009054906101000a900473ffffffffffffffffffffffffffffffffffffffff16905060008060008373ffffffffffffffffffffffffffffffffffffffff1673ffffffffffffffffffffffffffffffffffffffff168152602001908152602001600020819055505080806104d790610b52565b915050610437565b50600067ffffffffffffffff8111156104fb576104fa610b9b565b5b6040519080825280602002602001820160405280156105295781602001602082028036833780820191505090505b506001908051906020019061053f929190610777565b5060003373ffffffffffffffffffffffffffffffffffffffff164760405161056690610bfb565b60006040518083038185875af1925050503d80600081146105a3576040519150601f19603f3d011682016040523d82523d6000602084013e6105a8565b606091505b50509050806105ec576040517f08c379a00000000000000000000000000000000000000000000000000000000081526004016105e390610c5c565b60405180910390fd5b50565b60006020528060005260406000206000915090505481565b6802b5e3af16b188000081565b7f000000000000000000000000000000000000000000000000000000000000000081565b7f000000000000000000000000000000000000000000000000000000000000000081565b6001818154811061066c57600080fd5b906000526020600020016000915054906101000a900473ffffffffffffffffffffffffffffffffffffffff1681565b6000806106a7836106d7565b90506000670de0b6b3a764000085836106c09190610c7c565b6106ca9190610d05565b9050809250505092915050565b6000808273ffffffffffffffffffffffffffffffffffffffff1663feaf968c6040518163ffffffff1660e01b815260040160a06040518083038186803b15801561072057600080fd5b505afa158015610734573d6000803e3d6000fd5b505050506040513d601f19601f820116820180604052508101906107589190610dae565b5050509150506402540be4008161076f9190610e29565b915050919050565b8280548282559060005260206000209081019282156107f0579160200282015b828111156107ef5782518260006101000a81548173ffffffffffffffffffffffffffffffffffffffff021916908373ffffffffffffffffffffffffffffffffffffffff16021790555091602001919060010190610797565b5b5090506107fd9190610801565b5090565b5b8082111561081a576000816000905550600101610802565b5090565b6000819050919050565b6108318161081e565b82525050565b600060208201905061084c6000830184610828565b92915050565b600080fd5b600073ffffffffffffffffffffffffffffffffffffffff82169050919050565b600061088282610857565b9050919050565b61089281610877565b811461089d57600080fd5b50565b6000813590506108af81610889565b92915050565b6000602082840312156108cb576108ca610852565b5b60006108d9848285016108a0565b91505092915050565b6000819050919050565b60006109076109026108fd84610857565b6108e2565b610857565b9050919050565b6000610919826108ec565b9050919050565b600061092b8261090e565b9050919050565b61093b81610920565b82525050565b60006020820190506109566000830184610932565b92915050565b61096581610877565b82525050565b6000602082019050610980600083018461095c565b92915050565b61098f8161081e565b811461099a57600080fd5b50565b6000813590506109ac81610986565b92915050565b6000602082840312156109c8576109c7610852565b5b60006109d68482850161099d565b91505092915050565b600082825260208201905092915050565b7f596f75206e65656420746f207370656e64206d6f726520455448210000000000600082015250565b6000610a26601b836109df565b9150610a31826109f0565b602082019050919050565b60006020820190508181036000830152610a5581610a19565b9050919050565b7f4e487b7100000000000000000000000000000000000000000000000000000000600052601160045260246000fd5b6000610a968261081e565b9150610aa18361081e565b9250827fffffffffffffffffffffffffffffffffffffffffffffffffffffffffffffffff03821115610ad657610ad5610a5c565b5b828201905092915050565b600081519050610af081610986565b92915050565b600060208284031215610b0c57610b0b610852565b5b6000610b1a84828501610ae1565b91505092915050565b7f4e487b7100000000000000000000000000000000000000000000000000000000600052603260045260246000fd5b6000610b5d8261081e565b91507fffffffffffffffffffffffffffffffffffffffffffffffffffffffffffffffff821415610b9057610b8f610a5c565b5b600182019050919050565b7f4e487b7100000000000000000000000000000000000000000000000000000000600052604160045260246000fd5b600081905092915050565b50565b6000610be5600083610bca565b9150610bf082610bd5565b600082019050919050565b6000610c0682610bd8565b9150819050919050565b7f43616c6c206661696c6564000000000000000000000000000000000000000000600082015250565b6000610c46600b836109df565b9150610c5182610c10565b602082019050919050565b60006020820190508181036000830152610c7581610c39565b9050919050565b6000610c878261081e565b9150610c928361081e565b9250817fffffffffffffffffffffffffffffffffffffffffffffffffffffffffffffffff0483118215151615610ccb57610cca610a5c565b5b828202905092915050565b7f4e487b7100000000000000000000000000000000000000000000000000000000600052601260045260246000fd5b6000610d108261081e565b9150610d1b8361081e565b925082610d2b57610d2a610cd6565b5b828204905092915050565b600069ffffffffffffffffffff82169050919050565b610d5581610d36565b8114610d6057600080fd5b50565b600081519050610d7281610d4c565b92915050565b6000819050919050565b610d8b81610d78565b8114610d9657600080fd5b50565b600081519050610da881610d82565b92915050565b600080600080600060a08688031215610dca57610dc9610852565b5b6000610dd888828901610d63565b9550506020610de988828901610d99565b9450506040610dfa88828901610ae1565b9350506060610e0b88828901610ae1565b9250506080610e1c88828901610d63565b9150509295509295909350565b6000610e3482610d78565b9150610e3f83610d78565b9250827f7fffffffffffffffffffffffffffffffffffffffffffffffffffffffffffffff0482116000841360008413161615610e7e57610e7d610a5c565b5b817f80000000000000000000000000000000000000000000000000000000000000000583126000841260008413161615610ebb57610eba610a5c565b5b827f80000000000000000000000000000000000000000000000000000000000000000582126000841360008412161615610ef857610ef7610a5c565b5b827f7fffffffffffffffffffffffffffffffffffffffffffffffffffffffffffffff0582126000841260008412161615610f3557610f34610a5c565b5b82820290509291505056fea26469706673582212204b99272b44fecc8774a4a4443fa1f5eca9df1d7c10e58017ada4d9c0a0ac6a5364736f6c63430008080033",
  "devdoc": {
    "author": "Robel Tamirat",
    "kind": "dev",
    "methods": {},
    "title": "A contract for crowd funding",
    "version": 1
  },
  "userdoc": {
    "kind": "user",
    "methods": {},
    "notice": "Made this contact from Patrick's course",
    "version": 1
  },
  "storageLayout": {
    "storage": [
      {
        "astId": 120,
        "contract": "contracts/FundMe.sol:FundMe",
        "label": "addressToAmountFunded",
        "offset": 0,
        "slot": "0",
        "type": "t_mapping(t_address,t_uint256)"
      },
      {
        "astId": 123,
        "contract": "contracts/FundMe.sol:FundMe",
        "label": "funders",
        "offset": 0,
        "slot": "1",
        "type": "t_array(t_address)dyn_storage"
      }
    ],
    "types": {
      "t_address": {
        "encoding": "inplace",
        "label": "address",
        "numberOfBytes": "20"
      },
      "t_array(t_address)dyn_storage": {
        "base": "t_address",
        "encoding": "dynamic_array",
        "label": "address[]",
        "numberOfBytes": "32"
      },
      "t_mapping(t_address,t_uint256)": {
        "encoding": "mapping",
        "key": "t_address",
        "label": "mapping(address => uint256)",
        "numberOfBytes": "32",
        "value": "t_uint256"
      },
      "t_uint256": {
        "encoding": "inplace",
        "label": "uint256",
        "numberOfBytes": "32"
      }
    }
  }
}